:100000000C943E000C9448000C9448000C9448005A
:100010000C9448000C9448000C9448000C944A003E
:100020000C9448000C9448000C9448000C94480030
:100030000C9448000C9448000C9448000C94480020
:100040000C9448000C9448000C9448000C94480010
:100050000C9448000C9448000C9448000C94480000
:100060000C9448000C9448000C9448000C944800F0
:100070000C9448000C9448000C94480011241FBEB6
:10008000CFEFD8E0DEBFCDBF0E9478000C948E0089
:100090000C9400001F920F920FB60F9211248F93B1
:1000A000EF93FF9383E04F9B0FC085B9E3E2F4EF3A
:1000B0003197F1F700C0000015B8E3E2F4EF319793
:1000C000F1F700C00000EFCFFF91EF918F910F90FB
:1000D0000FBE0F901F901895E3E7F0E080818068D5
:1000E0008083E8E6F0E080818860808378940895DA
:1000F0008FEF84B91AB85F9A0E946C0080E885B9C6
:10010000E7EAF1E63197F1F700C0000015B8E7EA39
:10011000F1E63197F1F700C00000F1CFF894FFCF7E
:00000001FF
