:100000000C943E000C9452000C9450000C94500040
:100010000C9450000C9450000C9450000C94500020
:100020000C9450000C9450000C9450000C94500010
:100030000C9450000C9450000C9450000C94500000
:100040000C9450000C9450000C9450000C945000F0
:100050000C9450000C9450000C9450000C945000E0
:100060000C9450000C9450000C9450000C945000D0
:100070000C9450000C9450000C94500011241FBE9E
:10008000CFEFD8E0DEBFCDBF21E0A0E0B1E001C0FE
:100090001D92A230B207E1F70E9473000C94960003
:1000A0000C9400001F920F920FB60F9211248F93A1
:1000B0009F9380910001909101010196909301011D
:1000C000809300019F918F910F900FBE0F901F9012
:1000D00018956AE00E948A00292F30E1839FC001B1
:1000E0001124822B089581E08DBB78948FEF81B924
:1000F0001AB88BB9809100010E94690082B9809181
:100100000001909101014597A8F31092010110920E
:100110000001F0CF991B79E004C0991F961708F0F1
:10012000961B881F7A95C9F780950895F894FFCF9C
:00000001FF
